{
  "transactions": [
    {
      "hash": "0x48f04367d06ff6353955d70390362fb86c1094fba9ec0a7028cc91384efed1d9",
      "transactionType": "CALL",
      "contractName": "LinkToken",
      "contractAddress": "0x779877a7b0d9e8603169ddbd7836e478b4624789",
      "function": "transferAndCall(address,uint256,bytes)",
      "arguments": [
        "0x9DdfaCa8183c41ad55329BdeeD9F6A8d53168B1B",
        "100000000000000000",
        "0xb023e526376b412744a394d136938b38c9e749e73469052e6e1043b06b7ad6f7"
      ],
      "transaction": {
        "from": "0xf54ea090d66ac6903cae152d7e35ea0ff59b42cc",
        "to": "0x779877a7b0d9e8603169ddbd7836e478b4624789",
        "gas": "0x1c1ff",
        "value": "0x0",
        "input": "0x4000aea00000000000000000000000009ddfaca8183c41ad55329bdeed9f6a8d53168b1b000000000000000000000000000000000000000000000000016345785d8a000000000000000000000000000000000000000000000000000000000000000000600000000000000000000000000000000000000000000000000000000000000020b023e526376b412744a394d136938b38c9e749e73469052e6e1043b06b7ad6f7",
        "nonce": "0x13",
        "chainId": "0xaa36a7"
      },
      "additionalContracts": [],
      "isFixedGasLimit": false
    }
  ],
  "receipts": [
    {
      "status": "0x1",
      "cumulativeGasUsed": "0x11e5674",
      "logs": [
        {
          "address": "0x779877a7b0d9e8603169ddbd7836e478b4624789",
          "topics": [
            "0xddf252ad1be2c89b69c2b068fc378daa952ba7f163c4a11628f55a4df523b3ef",
            "0x000000000000000000000000f54ea090d66ac6903cae152d7e35ea0ff59b42cc",
            "0x0000000000000000000000009ddfaca8183c41ad55329bdeed9f6a8d53168b1b"
          ],
          "data": "0x000000000000000000000000000000000000000000000000016345785d8a0000",
          "blockHash": "0x60cca0029c5f3864d0047678499f7d311952841c06002257f302576a7be0ef9f",
          "blockNumber": "0xa6ef8c",
          "blockTimestamp": "0x6a1840d0",
          "transactionHash": "0x48f04367d06ff6353955d70390362fb86c1094fba9ec0a7028cc91384efed1d9",
          "transactionIndex": "0xc6",
          "logIndex": "0x1ec",
          "removed": false
        },
        {
          "address": "0x779877a7b0d9e8603169ddbd7836e478b4624789",
          "topics": [
            "0xe19260aff97b920c7df27010903aeb9c8d2be5d310a2c67824cf3f15396e4c16",
            "0x000000000000000000000000f54ea090d66ac6903cae152d7e35ea0ff59b42cc",
            "0x0000000000000000000000009ddfaca8183c41ad55329bdeed9f6a8d53168b1b"
          ],
          "data": "0x000000000000000000000000000000000000000000000000016345785d8a000000000000000000000000000000000000000000000000000000000000000000400000000000000000000000000000000000000000000000000000000000000020b023e526376b412744a394d136938b38c9e749e73469052e6e1043b06b7ad6f7",
          "blockHash": "0x60cca0029c5f3864d0047678499f7d311952841c06002257f302576a7be0ef9f",
          "blockNumber": "0xa6ef8c",
          "blockTimestamp": "0x6a1840d0",
          "transactionHash": "0x48f04367d06ff6353955d70390362fb86c1094fba9ec0a7028cc91384efed1d9",
          "transactionIndex": "0xc6",
          "logIndex": "0x1ed",
          "removed": false
        },
        {
          "address": "0x9ddfaca8183c41ad55329bdeed9f6a8d53168b1b",
          "topics": [
            "0x1ced9348ff549fceab2ac57cd3a9de38edaaab274b725ee82c23e8fc8c4eec7a",
            "0xb023e526376b412744a394d136938b38c9e749e73469052e6e1043b06b7ad6f7"
          ],
          "data": "0x0000000000000000000000000000000000000000000000000000000000000000000000000000000000000000000000000000000000000000016345785d8a0000",
          "blockHash": "0x60cca0029c5f3864d0047678499f7d311952841c06002257f302576a7be0ef9f",
          "blockNumber": "0xa6ef8c",
          "blockTimestamp": "0x6a1840d0",
          "transactionHash": "0x48f04367d06ff6353955d70390362fb86c1094fba9ec0a7028cc91384efed1d9",
          "transactionIndex": "0xc6",
          "logIndex": "0x1ee",
          "removed": false
        }
      ],
      "logsBloom": "0x00000004000000000000000000000000000000000020000000000000020000000000000000000000000000000000000000000000000000000001000000000000000000000000000000000008000000000000000000000000000021000020000008000000000000000000000000000000000000000000000000000010000040000000000000000000000000010000800000000020000000000000000000001000800000000000000000000000010000000000000000000000000004008000000000000002000000000000000000000000000000000040000100000000000000000010000000000000800000000000000000000000000000000000000000000000",
      "type": "0x2",
      "transactionHash": "0x48f04367d06ff6353955d70390362fb86c1094fba9ec0a7028cc91384efed1d9",
      "transactionIndex": "0xc6",
      "blockHash": "0x60cca0029c5f3864d0047678499f7d311952841c06002257f302576a7be0ef9f",
      "blockNumber": "0xa6ef8c",
      "gasUsed": "0x133b1",
      "effectiveGasPrice": "0x3f052c38",
      "from": "0xf54ea090d66ac6903cae152d7e35ea0ff59b42cc",
      "to": "0x779877a7b0d9e8603169ddbd7836e478b4624789",
      "contractAddress": null
    }
  ],
  "libraries": [],
  "pending": [],
  "returns": {},
  "timestamp": 1779974352828,
  "chain": 11155111,
  "commit": "fe74cc0"
}